:08000000803102288731FD2F39
:100ED80021000C108C14080023001E121E159F11EF
:100EE80019309B009D179E160800F00023009E1CD9
:100EF8007E2F7F2F7A2F70089A0008000032003268
:100F0800000021009D149D188A2F8B2F872F1B0806
:100F18001C08080087319B27873187316C27873168
:100F28008731C02787318731702787310800210032
:100F38001908FC3902389900190887396838990066
:100F48001A1CA72FA82FA42F0800B62F71088400F9
:100F58007208850000088731792787310130F10749
:100F68000030F23D71088400720885001200031DEC
:100F7800BE2FBF2FAA2F080021000C1623000C1625
:100F880021001D0883390C389D0022009717033073
:100F98009704171FD02FD12FCD2F033021009E0487
:100FA8001E088F3940389E001D14080087318E278F
:100FB80087310030F1008830F2008731A927873166
:100FC8000A308731792787310D3087317927873182
:100FD8008731822787310630F5001330F400AE30B0
:100FE800890BF42FF40BF42FF50BF42FDD2F803140
:100FF800022820008731DA2F413442344334443404
:021008000034B2
:020000040001F9
:04000E00A409FF1C26
:00000001FF
