:08000000803102288731FD2F39
:100F300021000C108C14080023001E121E159F1196
:100F400019309B009D179E160800F00023009E1C80
:100F5000AA2FAB2FA62F70089A0008008731B82758
:100F6000873187319827873187319C27873108005F
:100F700021001908FC3902389900190887396838A6
:100F800099001A1CC42FC52FC12F0800D32F710838
:100F900084007208850000088731A5278731013059
:100FA000F1070030F23D71088400720885001200DC
:100FB000031DDB2FDC2FC72F08008731AE278731B9
:100FC0000030F1008830F2008731C62787310A30BF
:100FD0008731A52787310D308731A5278731063026
:100FE000F5001330F400AE30890BF42FF40BF42F1E
:100FF000F50BF42FE02F8031022820008731DD2F00
:0A10000041344234433444340034D8
:020000040001F9
:04000E00A409FF1C26
:00000001FF
