:08000000803102288731FD2F39
:100F76008B150B178B1708008731E8278731C22F8F
:100F86008031022821008C160C1624008C160C16B3
:100F960027009216121608002830240095009601A4
:100FA60009309200940121008C140C1508002100D0
:100FB6001908FC39023899001908873968389900E8
:100FC6001A1CE62FE72FE32F08008731DA2787312F
:100FD6008731C52787318731BB2787310030F3003A
:100FE6000130F2008630F100A030F0008731CF27C3
:0A0FF6008731080020008731BF2F6B
:020000040001F9
:04000E00A409FF1C26
:00000001FF
