:08000000803102288731FD2F39
:100F800021000C108C14080023001E121E159F1146
:100F900019309B009D179E1608008731D72787318F
:100FA0008731C02787318731C42787310800210066
:100FB0001908FC39023899001908873968389900EE
:100FC0001A1CE32FE42FE02F08008731CD2787314B
:100FD000613023009A009E18EE2FEF2FEB2F063082
:100FE000F1001330F000AE30890BF42FF00BF42F2A
:100FF000F10BF42FE82F8031022820008731E52FF4
:020000040001F9
:04000E00A409FF1C26
:00000001FF
