:08000000803102288731FD2F39
:100ED8000800240016142000911D732F742F6F2F03
:100EE80091110800240016152000911D7C2F7D2FDC
:100EF800782F91110800F00070082400910020005C
:100F0800911D872F882F832F9111080021000C1025
:100F180023001E121E159F1119309B009D179E1647
:100F2800080021008C140C1524001508F039083825
:100F38009500093092009516080021001908FC391F
:100F48000238990019088739683899001A1CAD2F9A
:100F5800AE2FAA2F08008731A127873187316C2748
:100F680087318731C027873187318A278731873191
:100F7800952787318B17080021000C1623000C16C3
:100F880021001D0883390C389D0022009717033073
:100F98009704171FD02FD12FCD2F033021009E0487
:100FA8001E088F3940389E001D1408008731AF276E
:100FB800873187316D278731C03087317F27873167
:100FC800073087317F278731FF3087317F27873187
:100FD8008731762787310630F2001330F100AE30C2
:100FE800890BF42FF10BF42FF20BF42FDD2F803146
:080FF800022820008731DA2FE6
:020000040001F9
:04000E00A409FF1C26
:00000001FF
